{
  "address": "0xc7fd46c8ff9003AaE92A40519bCfEB3EAFd9286c",
  "abi": [
    {
      "inputs": [
        {
          "internalType": "address",
          "name": "AggregatorV3",
          "type": "address"
        }
      ],
      "stateMutability": "nonpayable",
      "type": "constructor"
    },
    {
      "stateMutability": "nonpayable",
      "type": "fallback"
    },
    {
      "inputs": [],
      "name": "getData",
      "outputs": [
        {
          "internalType": "int256",
          "name": "",
          "type": "int256"
        }
      ],
      "stateMutability": "view",
      "type": "function"
    },
    {
      "inputs": [],
      "name": "getOwner",
      "outputs": [
        {
          "internalType": "address",
          "name": "",
          "type": "address"
        }
      ],
      "stateMutability": "view",
      "type": "function"
    },
    {
      "stateMutability": "payable",
      "type": "receive"
    }
  ],
  "transactionHash": "0x32e58d5a03e1e614bcbfd33a491c74001f3b86ef11bbee4e434a647c5099266a",
  "args": [
    "0x694AA1769357215DE4FAC081bf1f309aDC325306"
  ],
  "numDeployments": 1,
  "solcInputHash": "f51c26b879f3ecf3ad7ece4c02f74c53",
  "bytecode": "0x60c060405234801561001057600080fd5b5060405161049d38038061049d83398181016040528101906100329190610103565b8073ffffffffffffffffffffffffffffffffffffffff1660a08173ffffffffffffffffffffffffffffffffffffffff16815250503373ffffffffffffffffffffffffffffffffffffffff1660808173ffffffffffffffffffffffffffffffffffffffff168152505050610130565b600080fd5b600073ffffffffffffffffffffffffffffffffffffffff82169050919050565b60006100d0826100a5565b9050919050565b6100e0816100c5565b81146100eb57600080fd5b50565b6000815190506100fd816100d7565b92915050565b600060208284031215610119576101186100a0565b5b6000610127848285016100ee565b91505092915050565b60805160a0516103496101546000396000609d0152600061013b01526103496000f3fe60806040526004361061002d5760003560e01c80633bc5de3014610042578063893d20e81461006d57610034565b3661003457005b34801561004057600080fd5b005b34801561004e57600080fd5b50610057610098565b6040516100649190610178565b60405180910390f35b34801561007957600080fd5b50610082610137565b60405161008f91906101d4565b60405180910390f35b6000807f000000000000000000000000000000000000000000000000000000000000000073ffffffffffffffffffffffffffffffffffffffff1663feaf968c6040518163ffffffff1660e01b815260040160a060405180830381865afa158015610106573d6000803e3d6000fd5b505050506040513d601f19601f8201168201806040525081019061012a9190610298565b5050509150508091505090565b60007f0000000000000000000000000000000000000000000000000000000000000000905090565b6000819050919050565b6101728161015f565b82525050565b600060208201905061018d6000830184610169565b92915050565b600073ffffffffffffffffffffffffffffffffffffffff82169050919050565b60006101be82610193565b9050919050565b6101ce816101b3565b82525050565b60006020820190506101e960008301846101c5565b92915050565b600080fd5b600069ffffffffffffffffffff82169050919050565b610213816101f4565b811461021e57600080fd5b50565b6000815190506102308161020a565b92915050565b61023f8161015f565b811461024a57600080fd5b50565b60008151905061025c81610236565b92915050565b6000819050919050565b61027581610262565b811461028057600080fd5b50565b6000815190506102928161026c565b92915050565b600080600080600060a086880312156102b4576102b36101ef565b5b60006102c288828901610221565b95505060206102d38882890161024d565b94505060406102e488828901610283565b93505060606102f588828901610283565b925050608061030688828901610221565b915050929550929590935056fea2646970667358221220cebf6b8339eaedd004ccd725f4cd6c923b32e056754bdd4c4d7706854f5fa43a64736f6c63430008140033",
  "devdoc": {
    "kind": "dev",
    "methods": {
      "constructor": {
        "details": "Contract constructor ."
      },
      "getOwner()": {
        "details": "Returns owner.",
        "returns": {
          "_0": "i_owner address."
        }
      }
    },
    "version": 1
  },
  "userdoc": {
    "kind": "user",
    "methods": {},
    "version": 1
  },
  "storageLayout": {
    "storage": [],
    "types": null
  }
}